:020000040800F2
:10000000080B0020C1010008632B00081D1A00081E
:10001000612B000849030008B13A00080000000005
:10002000000000000000000000000000E5340008AF
:10003000CD04000800000000212C0008E93500086C
:10004000DB010008DB010008DB010008DB01000820
:10005000DB010008DB010008DB010008DB01000810
:10006000DB010008DB010008DB010008DB01000800
:10007000DB010008DB010008DB010008DB010008F0
:10008000DB010008DB010008DB010008DB010008E0
:10009000DB010008DB010008DB010008DB010008D0
:1000A000DB010008DB010008DB010008DB010008C0
:1000B000DB010008DB010008DB010008DB010008B0
:1000C000DB010008DB010008DB010008DB010008A0
:1000D000DB010008DB010008DB010008DB01000890
:1000E000410B0008DB010008DB010008DB01000810
:1000F000DB010008DB010008DB010008DB01000870
:10010000DB010008DB010008DB010008DB0100085F
:10011000DB010008DB010008DB010008DB0100084F
:10012000DB010008DB010008DB010008DB0100083F
:10013000DB010008DB010008DB010008DB0100082F
:10014000DB010008DB010008DB010008DB0100081F
:10015000DB010008DB010008DB010008DB0100080F
:10016000DB010008DB010008DB010008DB010008FF
:10017000DB010008DB010008DB010008DB010008EF
:10018000DB010008DB010008DB010008DB010008DF
:10019000DB010008DB010008DB010008DB010008CF
:1001A000DB010008DB010008DB010008DFF80CD0F0
:1001B00000F06EF8004800477D410008080B002061
:1001C0000648804706480047FEE7FEE7FEE7FEE7F1
:1001D000FEE7FEE7FEE7FEE7FEE7FEE7ED35000897
:1001E000AD01000840EA01039B0703D009E008C9FC
:1001F000121F08C0042AFAD203E011F8013B00F8EC
:10020000013B521EF9D27047D2B201E000F8012B37
:10021000491EFBD270470022F6E710B513460A4686
:1002200004461946FFF7F0FF204610BD2DE9F05FA8
:100230000546002092469B46884606468146402455
:100240001BE0284641464746224600F042F8534606
:100250005A46C01A914110D311461846224600F062
:1002600029F82D1A67EB01084F462246012000218C
:1002700000F020F817EB00094E41201EA4F1010404
:10028000DFDC484631462A464346BDE8F09F000081
:10029000064C074D06E0E06840F0010394E80700D3
:1002A00098471034AC42F6D3FFF784FF9857000804
:1002B000B8570008202A04DB203A00FA02F1002097
:1002C00070479140C2F1200320FA03F31943904094
:1002D0007047202A04DB203A21FA02F000217047FF
:1002E00021FA02F3D040C2F120029140084319469E
:1002F000704770B58C1810F8015B15F0070301D139
:1003000010F8013B2A1106D110F8012B03E010F878
:10031000016B01F8016B5B1EF9D12B0705D400239B
:10032000521E0DD401F8013BFAE710F8013BCB1A3D
:10033000921C03E013F8015B01F8015B521EF9D532
:10034000A142D8D3002070BDFEE7000010B54FF6E3
:10035000FF70014602F0BCFA0D480E496FF001042F
:10036000007800EB400201EB82010B4A0B8932F866
:100370002000424204EB42021A444B89012101EB66
:100380004000BDE8104092B280B2002101F0C2BE30
:10039000100000205C42000850540008017A044814
:1003A000017100884FF6FF7180B202F091BA00002F
:1003B0003000002010B5074C8068206080B24FF6F6
:1003C000FF7102F085FA2079082801D10020207100
:1003D00010BD00003000002010B50121CC052046E2
:1003E00002F04CFC2046BDE81040002102F046BC63
:1003F00001460020024A52680A4200D0012070479C
:1004000000B0024030B500242A4B19682A4A114036
:1004100019601968026811431960596B21F00701CE
:100420005963596B4268114359634168002928D0C8
:1004300001292DD0022930D0032933D0C1680A0107
:1004400001690902446924038568214315430D436A
:10045000996B0D439D638169D963196C6FF30D012D
:100460001964196CC26911431964818C09045A6CAE
:1004700002F040425A645A6C006A02430A435A64CA
:1004800030BDC1680A02018A0904047D2406DBE745
:10049000C1680A02018A0904D6E7C1684A010169F4
:1004A000C902D1E7C1684A01016989024469E403CC
:1004B000CAE7000000B00240FCE0FCFF024801680F
:1004C00041F001010160704700B002407047000038
:1004D00070B586B00121084602F0C2FB0121102050
:1004E00002F0F6FB1E4E07220A21304600F078FC8F
:1004F00007220921304600F073FC00248DF81640D5
:1005000001208DF8170002258DF814504102049146
:100510008DF8155004A9304600F024FC8DF81450D5
:100520006802049004A9304600F01CFC4FF4E1304E
:100530000090ADF80440ADF80640ADF80840ADF8C5
:100540000C400C20ADF80A00064C6946204603F02A
:100550004DFA0121204603F035FA06B070BD0000C7
:10056000000002400010014001B502E00098401E6A
:10057000009000980028F9D108BD01B502E000986C
:10058000401E009000980028F9D108BD01B502E096
:100590000098401E009000980028F9D108BD000086
:1005A0002DE9F04104464FF47846207B4FF6FF7565
:1005B000002834D02946284602F08AF9E08861886C
:1005C000A288401A83B22088121A92B201F0A2FDCA
:1005D0002946304602F07CF9244802F07FF9A088D1
:1005E000218823A2401A183800EBD07001EB60007C
:1005F00081B26088193080B201F022FC29464FF4A4
:10060000047002F065F9E0886188A288401A83B21C
:100610002088BDE8F041121A92B201F017BE4DF6E3
:10062000FB672946384602F053F9E0886188A288C2
:10063000401A83B22088121A92B201F06BFD39463B
:10064000304602F045F9094802F048F9A0882188AF
:1006500007A2401A183800EBD07001EB600081B29D
:100660006088193080B201F0EBFBC7E7240000205E
:100670004300000070B504464FF6FF75207B00284C
:100680001ED02846014602F023F9E0886188A2883E
:10069000401A83B22088121A92B201F03BFD29461B
:1006A0004FF4047002F014F9E0886188A288401ABF
:1006B00083B22088BDE87040121A92B201F0C6BD24
:1006C0002089294680B202F003F9E0886188A28877
:1006D000401A83B22088121A92B201F01BFDDEE7A5
:1006E000F8B504464FF40476207B4FF6FF750028DA
:1006F0002AD02946284602F0EBF8E0886188A288D3
:10070000401A83B22088121A92B201F003FD2946E2
:10071000304602F0DDF8E0886188A288401A83B292
:100720002088121A92B201F091FD2946002002F0B1
:10073000CFF8A0680A26092850D2DFE800F0243C50
:100740005064788CA0B3E7004DF6FB672946384625
:1007500002F0BEF8E0886188A288401A83B220883F
:10076000121A92B201F0D6FC3946304602F0B0F8C7
:10077000E0886188A288401A83B22088121A92B257
:1007800001F064FDD1E72946002002F0A1F8E088DD
:100790006188401A00EBD07001EB600083B281B237
:1007A000A088143882B2208801B01430BDE8F0402F
:1007B00080B201F06DBD01200090E0886188401A90
:1007C00000EBD07001EB600083B281B2A0881438D6
:1007D00082B22088143080B201F0B6FDF8BD02204C
:1007E0000090E0886188401A00EBD07001EB600057
:1007F00083B281B2A088143882B22088143080B2CB
:1008000001F0A2FDF8BD03200090E1886088091A7C
:1008100001EBD17100EB610083B281B2A088143882
:1008200082B22088143080B201F08EFDF8BD042021
:100830000090E0886188401A00EBD07001EB600006
:1008400083B281B2A088143882B22088143080B27A
:1008500001F07AFDF8BD08200090E1886088091A4F
:1008600001EBD17100EB610083B281B2A088143832
:1008700082B22088143080B201F066FDF8BD009687
:10088000E1886088091A01EBD17100EB610083B245
:1008900081B2A088143882B22088143080B201F06E
:1008A00053FDF8BD2946002002F012F8E088618867
:1008B000401A00EBD07001EB600083B281B2A088D7
:1008C000401F82B22088401D80B201F0E1FC00256B
:1008D00013E0E18860880523091A01EBD17100EB70
:1008E000610081B205EB850003EB4000104480B24B
:1008F000032201F0C1FB6D1CADB2A0882288801AD2
:100900000A3890FBF6F0A842E3DCF8BD0021284647
:1009100001F0DEFFE08861882323401A1E3800EBD7
:10092000D07001EB600086B2A08821881E22401A98
:100930001E3800EBD07001EB600080B2314601F050
:10094000E9FB29464FF4784001F0C2FF0D4801F061
:10095000C5FFA08821880CA2401A183800EBD0707F
:1009600001EB600083B2E0886188401A143800EB24
:10097000D07001EB60001946BDE8F84080B201F08C
:100980005FBA000024000020520000002DE9F84367
:100990001446089A0E461D46674B66494FF0010CF7
:1009A0001F7831F827100CEB4101A14230DA814267
:1009B0002EDA92F80480E21EC31EB8F1090F27D286
:1009C000DFE808F0051828374453647590000028C4
:1009D00001DB002E05DA29462046BDE8F84302F087
:1009E00021B901B0ABB2A2B2B1B2BDE8F04380B25E
:1009F00001F04EBC621E91420ADC421E914207DCAD
:100A0000ABB2A2B2B1B280B2CDF800C001F09CFC92
:100A1000BDE8F883A21E9142FADC821E9142F7DC07
:100A200002210091ABB2A2B2B1B280B201F08CFC53
:100A3000EEE79142ECDC9942EADC03210091ABB293
:100A4000A2B2B1B280B201F07FFCE1E7221F914275
:100A5000DEDC021F9142DBDC04210091ABB2A2B2CA
:100A6000B1B280B201F070FCD2E7A4F10802914269
:100A7000CEDCA0F108029142CADC08210091ABB2A1
:100A8000A2B2B1B280B201F05FFCC1E7A4F10A02E8
:100A90009142BDDCA0F10A029142B9DC0A21009129
:100AA000ABB2A2B2B1B280B201F04EFCB0E791425B
:100AB000AEDC9942ACDC002801DB002E05DA2946C9
:100AC0002046BDE8F84302F0ADB8ABB2A2B2B1B275
:100AD00080B201F0DDFBA9B2A0B2BDE8F843032269
:100AE00001F0CABAA4F114000646814290DC134812
:100AF00007EB470100EB810004F1140102898A42EF
:100B000086DB142C84D4418905F1140081428FDBEB
:100B1000142D8DD44FF6FF70014601F0D9FE143D1F
:100B200001B0A9B2B0B2BDE8F04328231A4601F0E3
:100B3000F1BA000050540008100000205C42000888
:100B400010B54FF40054204600F010F8002806D0ED
:100B500000F0F8FD2046BDE8104000F001B810BDDF
:100B60000149086070470000143C01400146002024
:100B7000024A12680A4200D001207047143C01402A
:100B800030B51B4A83790168002B2AD013688B4348
:100B90001360111D0B680468A3430B6001791144B5
:100BA0000B68046823430B60114C08342168036808
:100BB00099432160231D19680568A943196041798B
:100BC000102905D011440A68006802430A6030BD4C
:100BD00021680268114321601968006801431960A7
:100BE00030BD0079104402688A43026030BD0000C5
:100BF000003C014000224FF0204310280AD0B0F5FD
:100C0000807F09D0B0F5805F09D0D3F858018143C7
:100C100009D107E0586EFAE7D3F88400F7E7D3F874
:100C2000A400F4E70122104670470000D0E900124A
:100C300011438268C068521E520142EA40200143BB
:100C40000148016070470000500100A070B50468C1
:100C5000A100A1F1C041D1F84011CE0BF603D0E9BB
:100C600001121143D0E903231A4311434269C369B6
:100C700011438269056A11431943426A29431143AA
:100C800031434FF02046002C3CD0D6F840416FF362
:100C90000E042B4322431343C6F8403102689200EE
:100CA000A2F1C042C2F84011016871B38900A1F1FC
:100CB000C041D1F8481101F07043816A0A684C685C
:100CC000521E641E42EA04148A68521E44EA022438
:100CD0000A8A521E44EA02421A43D6F8483103F007
:100CE0007043CC68898A641E2403491E44EA01517A
:100CF0001943C6F8481100688000A0F1C040C0F850
:100D0000482170BDC6F84011CEE7FFE7D6F848117C
:100D100001F07041806A02684368521E5B1E42EA1D
:100D200003138268521E43EA0223C268521E43EA3A
:100D30000233028A521E43EA0243828A007E521E16
:100D400043EA0252401E42EA00600843C6F84801E6
:100D500070BD000002490A6842EA4000086070471E
:100D6000540100A02DE9F041002201274FF0030CAF
:100D700007FA02F50B682B40AB422CD106685300F2
:100D80000CFA03F4A64306600E79D0F800809E406A
:100D900046EA080606600E79012E01D0022E12D115
:100DA0008668A64386604E79D0F808809E4046EA61
:100DB000080686604668AE43466045688E79964070
:100DC000B6B235434560C568A543C560CC799C4043
:100DD000C3681C43C460521C102AC9D3BDE8F0810B
:100DE00010B54B07DB0E9A40C90800EB8100016A81
:100DF0000F249C40A1430162016A1143016210BDAE
:100E00000246002012690A4200D001207047418347
:100E100070470183704700002DE9FE4F00200090CD
:100E200001900290334FDFF8D080387800EB40001B
:100E300008EB40008088401C010A8DF800108DF8F6
:100E400001000A226946BA2000F096F8002802DA6A
:100E50000020BDE8FE8F9DF802009DF8031000EB16
:100E600001201FFA80F99DF804009DF8051000EBA1
:100E700001201FFA80FA40F2AD2120A002F01AFEF4
:100E80006E4625A002F016FE00240A25315D28A03A
:100E900002F010FE601C90FBF5F105FB110010B98B
:100EA00025A002F007FE641C0A2CEFDB22A002F052
:100EB00001FE387800EB400008EB40008088801D80
:100EC000010A8DF800108DF8010003226946BA204E
:100ED00000F052F8002801DA0020BAE79DF802007D
:100EE00000F003035246494614A002F0E3FD01203E
:100EF000AFE700003C000020D05600083C3C2D47E6
:100F000054502D44454255472D3E3E205B25645D9F
:100F10005245530A000000003C3C2D4754502D44DC
:100F2000454255472D41525241592D3E3E0A00003F
:100F300025303278202020000A0000003C3C2D475C
:100F400054502D494E464F2D3E3E20585F4D41583E
:100F5000203D2025642C20595F4D4158203D2025FF
:100F6000642C2054524947474552203D2030782573
:100F70003032780A00000000F0B587B00E46174600
:100F80004FF0FF3500240021ADF806108DF8040065
:100F90000221ADF8081003960121ADF812108DF86A
:100FA0001000B81EADF81400B01C069007E0022136
:100FB00001A800F070FE0546022D02D0641C052C2D
:100FC000F5DB052C08DB707831782B4640EA0121EF
:100FD000BA1E034802F06EFD07B02846F0BD0000BF
:100FE000F456000838B5002000901248007800EB55
:100FF0004001114800EB41008088010A8DF8001083
:101000008DF801000024651E0DE003226946BA2018
:10101000FFF7B2FF45B2002D01DD284638BD21465D
:1010200006A002F047FD2046641CE4B20528ECD37C
:10103000284638BD3C000020D05600083C3C2D47D7
:1010400054502D4552524F522D3E3E204754502071
:101050006932632074657374206661696C6564200D
:1010600074696D652025642E0A000000FEB50E46E9
:1010700017464FF0FF3500240021ADF802108DF81F
:101080000000ADF80470029607E00121684600F008
:1010900002FE0546012D02D0641C052CF5DB052C53
:1010A00008DB707831782B4640EA0121BA1E0248ED
:1010B00002F000FD2846FEBD4457000800F050BD78
:1010C0002DE9F043CBB04FF0FF3700F0DBFDFFF729
:1010D00089FF0446002C06DA96A002F0EBFC2046BD
:1010E0004BB0BDE8F08300F0DDF94FF4817003F000
:1010F0007FF80446DFF868929A4999F8000000EBFF
:10110000400001EB40008088000A207099F8000040
:1011100000EB400201EB42010979617030B1012816
:1011200007D0022809D003280BD00DE08E4EBA2537
:101130000AE08D4EBA36BA2506E08A4EF03EEF251B
:1011400002E0874E0936EF254FF48071A01CFFF7AF
:1011500062F82A463146A01CFFF744F82A4640F2BE
:10116000053182A002F0A6FC2A4640F2063189A091
:1011700002F0A0FC90A002F09DFC00264FF00A08AF
:10118000A15D93A002F096FC701C90FBF8F108FBA7
:10119000110010B971A002F08DFC761C062EEFDB59
:1011A0006EA002F087FC8C48007800EB40018B4871
:1011B00000EB8100017AE1700189090A2171817ACD
:1011C00061714089000AA071002099F80010012681
:1011D000012905D021B1022911D003290FD02DE01A
:1011E0000221AA1C03E0635C184480B2491C9142AE
:1011F000F9DBC143491C60198170C6701EE00221F1
:101200006A1E08E0631814F801C05B7800EB0C203C
:10121000184480B2891C9142F4DB40421FFA80F9E5
:101220004A464FF44B716EA002F044FC60194FEA3D
:10123000192100F8011C04F80590467000262A1DAB
:101240002146BA20FFF712FF002802DC761C052E8B
:10125000F5DB6F48FFF79AF920788DF80000607889
:101260008DF801004FF496726946BA20FFF784FEAC
:101270004FF4537167A002F01DFCE9464EA002F046
:1012800019FC00260EE019F8061051A002F012FC1D
:10129000701C90FBF8F108FB110010B92FA002F0B0
:1012A00009FC761CAE42EEDB2CA002F003FC4FF4EE
:1012B00054715FA002F0FEFB3FA002F0FBFB002692
:1012C0000DE0A15D42A002F0F5FB701C90FBF8F16F
:1012D00008FB110010B921A002F0ECFB761CAE4215
:1012E000EFDB1EA002F0E6FB032168466D1E0DE059
:1012F000625C435C9A4207D054A002F0DBFB2046BC
:1013000002F03CFE3846EBE6491C89B2A942EFDB0D
:10131000A94205D10A464FF4587156A002F0CAFB03
:10132000FFF7CCFEFFF778FD204602F027FE0020F5
:10133000D6E600003C3C2D4754502D4552524F52AA
:101340002D3E3E2049324320636F6D6D756E69639B
:101350006174696F6E204552524F52210A0000009D
:101360003C000020D05600086C5400083C3C2D473F
:1013700054502D44454255472D3E3E205B25645D2B
:101380006366675F696E666F5F6C656E203D2025E2
:1013900064200A003C3C2D4754502D44454255479B
:1013A0002D3E3E205B25645D6366675F6E756D2034
:1013B0003D202564200A00003C3C2D4754502D441C
:1013C000454255472D41525241592D3E3E0A00009B
:1013D0002530327820202000100000205C420008D8
:1013E0003C3C2D4754502D44454255472D3E3E2010
:1013F0005B25645D436F6E66696720636865636B38
:1014000073756D3A203078253034580A000000009A
:10141000FFFF0F003C3C2D4754502D44454255479B
:101420002D3E3E205B25645D72656164200A0000EC
:101430003C3C2D4754502D44454255472D3E3E20BF
:101440005B25645D7772697465200A003C3C2D471A
:1014500054502D4552524F522D3E3E20436F6E66E2
:101460006967206661696C20212069203D20256420
:10147000200A00003C3C2D4754502D44454255471E
:101480002D3E3E205B25645D436F6E666967207369
:1014900075636365737320212069203D20256420D6
:1014A0000A0000002DE9F04186B06648C1688068F6
:1014B000CDE90401082204A9BA20FFF75DFD044626
:1014C000200006D560A002F0F5FA204606B0BDE87F
:1014D000F0819DF81430674D674E312B18D00027EE
:1014E000352B39D0382B5ED0372B77D09DF81600AE
:1014F0009DF817109DF81520CDE9002102909DF868
:1015000013209DF812105DA002F0D4FA2046DDE70A
:101510009DF81210392903D19DF81320312A0ED0DD
:101520009DF816009DF817209DF81550CDE9005242
:1015300002909DF8132051A002F0BCFAE6E79DF856
:1015400016709DF81700CDE900075AA002F0B2FA14
:10155000012028703070D9E79DF81210392907D181
:101560009DF81320312A03D19DF8150037280ED09D
:101570009DF816009DF817209DF81550CDE90052F2
:1015800002909DF813203DA002F094FABEE79DF86A
:1015900016C09DF817808DE8011152A002F08AFA5A
:1015A0002F703770B2E79DF81210352907D19DF8DA
:1015B0001320362A03D19DF8150038280FD09DF846
:1015C00016009DF817209DF81550CDE900520290A5
:1015D0009DF8132029A002F06DFA97E70DE09DF821
:1015E00016709DF817C0CDE901C7009049A002F020
:1015F00061FA02202870307088E79DF816009DF887
:1016000017109DF81520CDE9002102909DF81320B8
:101610009DF8121033A002F04DFA9DF812003928FF
:101620008CD19DF81300312888D19DF814003728FB
:1016300084D19DF8150053288DD103202870377070
:1016400064E700005C5400083C3C2D4754502D4595
:1016500052524F522D3E3E204754502072656164D5
:101660002076657273696F6E206661696C65640AC5
:10167000000000003C000020100000203C3C2D47F2
:1016800054502D494E464F2D3E3E20556E6B6E6F89
:10169000776E2049432056657273696F6E3A202534
:1016A000632563256325635F2530327825303278E2
:1016B0000A0000003C3C2D4754502D494E464F2D0A
:1016C0003E3E204943312056657273696F6E3A2061
:1016D0002563256325635F25303278253032780A0B
:1016E000000000003C3C2D4754502D494E464F2DE4
:1016F0003E3E204943322056657273696F6E3A2030
:1017000025632563256325635F25303278253032D4
:10171000780A00003C3C2D4754502D494E464F2D31
:101720003E3E204943332056657273696F6E3A20FE
:1017300025632563256325635F25303278253032A4
:10174000780A000000F09AB82DE9FC4104460E46E4
:101750001546CDE90053334622464FF4BC710EA026
:1017600002F0A8F9A9B2B0B201F06EFF174F164807
:101770000090A7F10A082BB232B237F9141038F9E9
:1017800014001D461646FFF701F928F8146027F8E3
:101790001450BDE8FC8100003C3C2D4754502D44C2
:1017A000454255472D3E3E205B25645D49443A2520
:1017B000642C20583A25642C20593A25642C205753
:1017C0003A25640A00000000300000203E0100209D
:1017D00070B504460B4EA6F10A0536F8141035F81C
:1017E000140002F0C5F84FF0FF3025F8140026F879
:1017F00014002246BDE870404FF4D27102A002F0FE
:1018000059B900003E0100203C3C2D4754502D4466
:10181000454255472D3E3E205B25645D546F756300
:10182000682069645B2532645D2072656C65617354
:1018300065210A0070B505460C460F48007800285F
:1018400001D101F063FD220AE1B2A13AC2EB02101C
:1018500000EB421001EB4001A13901EBC100810115
:10186000C81701EB5070C110482201F5AA012846A3
:1018700001F026FD002070BD2C0000202DE9F04F66
:1018800097B04CA00068169028210DF12C090CA8E7
:10189000FEF7C1FC484C20680B904FF0BA0B0026B5
:1018A0000C220BA95846FFF767FB0146002905DA11
:1018B00042A002F0FFF817B0BDE8F08F9DF82E00AF
:1018C0000028F8D0010669D500F00F05052D65D870
:1018D000012D14D9242101AF381DFEF79CFC60684E
:1018E0000190681E022101EBC002044601A958467E
:1018F000FFF742FBE200B91C0EA8FEF773FCDFF80D
:10190000ECA00AF10408BAF80200A84215D818E0C1
:1019100000246F1E0EE009EBC400C07800F00F0138
:1019200018F80600884207D0BC4201DBFFF750FFE1
:10193000641CE4B2AC42EED3761CBAF802008642D4
:10194000E6DBDDB1002416E009EBC400C17801F04C
:101950000F0608F804600179427941EA0221827990
:10196000C37942EA0322037A407A43EA00233046ED
:10197000FFF7EAFE641CAC42E6DB0DE0BAF80200B9
:1019800050B1002404E018F80400FFF721FF641CA4
:10199000BAF802008442F6DBAAF80250032216A924
:1019A0005846FFF763FB002885DA11A002F082F8A1
:1019B00081E70000814E00005C5400083C3C2D474C
:1019C00054502D4552524F522D3E3E204932432015
:1019D0007472616E73666572206572726F722E200A
:1019E0006572726E6F3A25640A200A003C0000207E
:1019F0003C3C2D4754502D494E464F2D3E3E2049EC
:101A0000324320777269746520656E645F636D642C
:101A1000206572726F72210A000000004B2102A043
:101A200002F048F8FEE7000046696C653A2E2E5C2D
:101A30002E2E5C557365725C73746D333266347828
:101A4000785F69742E632C4C696E653A2530336477
:101A50003A686172646661756C74206572720A001E
:101A60002DE9FC410121880501F024F9012188209C
:101A700001F0F6F80121880301F02AF91020009006
:101A800001258DF8045002248DF805408DF806508C
:101A900000268DF80760154F69463846FFF762F952
:101AA0002021009169463846FFF75CF9A0020090BA
:101AB0008DF804508DF805408DF806608DF80740CC
:101AC0000B4F69463846FFF74DF9200300908DF81B
:101AD00004508DF805408DF806608DF80740694682
:101AE0003846FFF73FF9BDE8FC810000001C0240CA
:101AF000000C024030B585B04FF40055009500242D
:101B00008DF8044002208DF805008DF807406946E5
:101B10001248FFF727F90D21032001F0E5FC03959A
:101B20008DF8104008208DF811008DF8124003A8A0
:101B3000FFF726F84FF4C06001F048F828208DF830
:101B4000080001208DF809008DF80A008DF80B407F
:101B500002A801F007F805B030BD0000000C0240FB
:101B600030B585B04FF40055009500248DF8044041
:101B700002208DF805008DF8074069461248FFF7EE
:101B8000F1F80D21032001F0AFFC03958DF8104012
:101B900008208DF8110001248DF8124003A8FEF7EB
:101BA000EFFF4FF4C06001F011F828208DF8080015
:101BB0008DF809408DF80A408DF80B4002A800F01E
:101BC000D1FF05B030BD0000000C024070B50646E4
:101BD0000D46144602F082FA46F0010002F052FA75
:101BE00002F0ACFA60B102F095FA012070BD02F08B
:101BF00027FA05F8010B641EA4B23CB102F0E6F925
:101C0000002CF4D102F086FA002070BD02F000FA38
:101C1000F6E700002DE9FC474FF40056009601203E
:101C20008DF8040002248DF8054000258DF806503B
:101C30008DF80740114F69463846FFF793F84FF487
:101C4000006841463846FFF7E2F8DFF8349048462E
:101C5000FEF793FC41463846FFF7DBF84846FEF7AF
:101C60008CFC00968DF804508DF805408DF80750D7
:101C700069463846FFF776F8BDE8FC87000C02405D
:101C8000FFFF0F0010B5FFF7EBFEFFF7C3FFBDE846
:101C90001040FFF72FBF70B505460E460024002008
:101CA00014E004EB440005EB80039978C90706D0E3
:101CB0009A8815F820009968FFF788FF05E01A79DF
:101CC00015F82000996800F008F8641C08B9B442BF
:101CD000E7D1002800D1204670BD2DE9F0418046B3
:101CE0000E46154602F016FA00244FF47A7702F0F9
:101CF000F5F9404602F0C6F902F020FA18B1641C6A
:101D0000A4B2BC42F3D3BC4206D00BE0307802F060
:101D1000B9F902F013FA20B102F0FCF90120BDE894
:101D2000F081761C6D1EEDB2F0D202F0F3F90020C6
:101D3000F5E7000070B58AB0C40A00F01F05C0F3D3
:101D40004516FEF749FB4FF4403000900220019009
:101D50000396029504940F2005900F4CA0680690FE
:101D600000200790207800EB40010C4800EB810038
:101D700041890891008909906846FEF743FBFEF708
:101D80009DFB0220FEF734FB0028FAD0608800F0AB
:101D9000C7FD0AB070BD0000100000205C420008C2
:101DA0002DE9F04393B00C46234E244F317801EBDC
:101DB000410107EB8101098941434D00114601A80A
:101DC000FFF738FD0022B3680DF1040C02EB42006E
:101DD0001CF800100902604490F8018048EA0108EC
:101DE0004FEA0828817841EA080100205FEA0128CB
:101DF00006D503EB4409B6F8028029F8058005E012
:101E000003EB4409B6F8048029F80580641C4900F6
:101E1000401CC0B21828E9D33078183C00EB4000D1
:101E200007EB800000890444521CD2B2182ACDD39B
:101E300013B0BDE8F0830000100000205C420008F1
:101E40002DE9F04105460C461646264FDFF89880EE
:101E500042E07E2A20D8386981880B19397801EB55
:101E6000410108EB8101B1F808C0634503D90024A2
:101E7000C3882B449DB2C08849892844884201D92F
:101E8000002400252146284600F030F83869808873
:101E9000204484B2761C1FE0387804F1180100EB6E
:101EA000400008EB800002898A4202D200241835E3
:101EB000ADB2418905F11800814201D2002400250C
:101EC0003088010201EB102082B221462846FFF73C
:101ED00067FF1834A4B2B61C3278002AB9D1BDE825
:101EE000F0810000100000205C42000810B4203A8D
:101EF000D3B2054A12691468D2885A4304EB4202ED
:101F000010BC00F003B80000100000202DE9F043E1
:101F10000024DFF8A0C0DFF8A0809CF8003003EBBD
:101F2000430308EB83031B8943435F006046066954
:101F30003AE000202AE00C25B3FBF5F5ED004FF068
:101F4000800909FA05F932F8145049FA00F919EA3A
:101F5000050F01D10C2B08D94FF0010909FA00F93E
:101F600015EA090F09D10C2B07D9DCF80850BCF889
:101F7000043005EB4105EB5306E0DCF80850BCF8F3
:101F8000023005EB4105EB53491C401CB3888342EA
:101F9000D1D89CF80000B38800EB400008EB80002B
:101FA0000089C01A0144641CF088A042C1D8BDE871
:101FB000F0830000100000205C4200082DE9F04F83
:101FC00052420023022404EB4204DFF8A480DFF82D
:101FD000A490B8F80260D8F8085098F80070A0EB08
:101FE000020B07EB470709EB870701EB030A3F8961
:101FF00007FB0AB725F8176098F800C087180CEBA4
:102000004C0C09EB8C0CBCF808C00CFB0A7C25F8C6
:102010001C6098F800C00CEB4C0C09EB8C0CBCF865
:1020200008A0A1EB030C0AFB0C7725F8176098F8C1
:10203000007007EB470709EB87073F8907FB0CB7E1
:1020400025F8176027469F4208DC5B1C04EB43041D
:10205000641CDA4202D1974200DC0027974203DD7C
:10206000521C04EB4204641C002AB6DDBDE8F08F6C
:10207000100000205C4200082DE9F74F0746884613
:1020800002980321A1EB40060024029D4FF6FF7940
:1020900035E09DB109EA4502A8EB050A381B9346D5
:1020A0001FFA8AF180B2012300F080F838195A46ED
:1020B0001FFA8AF180B2012300F078F89CB109EA96
:1020C0004402A8EB040A781B93461FFA8AF180B2F7
:1020D000012300F06BF878195A461FFA8AF180B292
:1020E000012300F063F8002E03DA06EB8406B61D28
:1020F00004E0601B06EB80060A366D1E641CAC42D1
:10210000C7D9029A03B041463846BDE8F04FFFF701
:1021100055BF00002DE9F04F8BB014469B46DFF809
:102120008490B9F80220D60A02F01F08C2F34517BE
:1021300099F80020DFF870A002EB42020AEB82025D
:10214000128902FB0100D9F8081001EB4005FEF7E7
:1021500043F94FF440300190022002900497CDF8EB
:102160000C8005960F200690079599F8000000EB6B
:1021700040000AEB80000089001B0890CDF824B0D5
:102180000A9401A8FEF73EF9FEF798F90220FEF73F
:102190002FF90028FAD0B9F8020000F0C1FB0BB00B
:1021A000BDE8F08F100000205C4200082DE9F04FE0
:1021B0008BB014469A46DFF88C80DFF88C9098F844
:1021C000002002EB420209EB8202128902FB0100AD
:1021D000D8F8081001EB4005B8F80200C60A00F074
:1021E0001F07C0F3451BFEF7F7F84FF4403001908E
:1021F00002200290CDF810B0039705960F200690AC
:1022000007950121BAF1000F17D098F8000000EBF4
:10221000400009EB80000089401E089009940A9153
:1022200001A8FEF7EFF8FEF749F90220FEF7E0F803
:102230000028FAD00BB0BDE8F08F0020089009917B
:102240000A94EDE7100000205C4200082DE9F041FF
:1022500006460D4617461C4600233A462946304698
:10226000FFF7A4FF281981B200233A463046FFF752
:102270009DFF0123224629463046FFF797FFF019BC
:1022800022462946BDE8F04180B20123FFF78EBF08
:102290002DE9FC4F84460C460027A2EB0C000028D9
:1022A00001DCACEB020000B2191B002900DCE11AD2
:1022B00009B20FFA8CF526B24FF0FF3B624503D30B
:1022C0004FF00109CA4601E0D946DA46A34204D3D9
:1022D0004FF0010B0122019201E0CDF804B08842D9
:1022E0000ADB4FF000090022019200EBD07252107D
:1022F00014B20091804623E04FF0000AD34601EB70
:10230000D172521014B20090884619E03146284626
:1023100000F088FC0098204404B2444508DBA4EB9C
:10232000080004B205EB090005B206EB0B0006B28B
:1023300005EB0A0005B20198304406B27F1C3FB29B
:102340004745E3DDBDE8FC8F2DE9FE4F84460C9F39
:102350000E464FF00008A2EB0C00002801DCACEBAD
:10236000020000B2991B002900DCF11A09B20FFA31
:102370008CF435B24FF0FF39624504D34FF0010AB7
:102380004FF0010B01E0CA46CB46B34203D3012212
:102390000292019203E0CDF80890CDF804908842B3
:1023A0000ADB4FF0000A0022019200EBD0725210BB
:1023B00016B2009181463CE04FF0000B00220292E1
:1023C00001EBD172521016B20090894631E01B48E1
:1023D000E119007800EB4002194800EB8200028905
:1023E000914222DAE11B00291FDD4089E91981426F
:1023F0001BDAE81B002818DDA9B2A0B23A46FFF7A5
:102400003BFE0098304406B24E4508DBA6EB0900BF
:1024100006B204EB0A0004B20298284405B204EBA9
:102420000B0004B20198284405B208F101080FFA24
:1024300088F8C845CBDDBDE8FE8F00001000002005
:102440005C4200082DE9FC5F012140F2FF1000F022
:1024500007FC4FF00408CDF8008002208DF805003D
:102460008DF8040000208DF806008DF807006946FD
:10247000AA48FEF777FC0E220221A848FEF7B0FC1E
:102480004FF00809CDF800906946A448FEF76AFCB1
:102490000E220321A148FEF7A3FC4FF4807ACDF869
:1024A00000A069469D48FEF75DFC0E2208219B486E
:1024B000FEF796FC0124009469469948FEF752FC09
:1024C000092200219648FEF78BFC4FF4006BCDF8F3
:1024D00000B069469348FEF745FC0E220B21914857
:1024E000FEF77EFC2003009069468E48FEF73AFC1A
:1024F0000E220C218B48FEF773FC022000906946E7
:102500008748FEF72FFC092201218548FEF768FC69
:102510004025009569468448FEF724FC0E220621DA
:102520008148FEF75DFC2020009069467F48FEF759
:1025300019FC0E2205217D48FEF752FC00956946E4
:102540007A48FEF70FFC0E2206217848FEF748FC79
:102550006003009069467148FEF704FC0E220D21CD
:102560006E48FEF73DFCA602009669466E48FEF7EF
:10257000F9FB09220A216C48FEF732FCE0030090C7
:1025800069466648FEF7EEFB0E220F216348FEF710
:1025900027FC009469466648FEF7E4FB0E22002102
:1025A0006348FEF71DFC8027009769466148FEF7E7
:1025B000D9FB0E2207215F48FEF712FCCDF8008000
:1025C00069465B48FEF7CEFB0E2202215848FEF713
:1025D00007FC4FF01008CDF8008069465348FEF71D
:1025E000C1FB0E2204215148FEF7FAFB20030090A4
:1025F00069464D48FEF7B6FB0E220C214A48FEF70D
:10260000EFFB00954C4D69462846FEF7ABFB0E22CA
:1026100006212846FEF7E4FBCDF800B069464248A3
:10262000FEF7A0FB0E220B213F48FEF7D9FBCDF8A9
:10263000008069463E48FEF795FB0E2204213C4887
:10264000FEF7CEFBCDF8009069463648FEF78AFBD0
:102650000E2203213348FEF7C3FBCDF800A06946E4
:102660002F48FEF77FFB0E2208212D48FEF7B8FB0E
:102670004FF40079CDF8009069462948FEF772FBC7
:102680000E2209212648FEF7ABFB00976946264833
:10269000FEF768FB0E2207212348FEF7A1FB0096F8
:1026A00069462348FEF75EFB0E220A212048FEF70A
:1026B00097FBCDF8009069461D48FEF753FB0E22AC
:1026C00009211B48FEF78CFB00961C4E69463046DC
:1026D000FEF748FB0E220A213046FEF781FBCDF8BB
:1026E000008002208DF805008DF8044000208DF850
:1026F00006008DF8074069462846FEF733FB009731
:1027000069462846FEF72EFB10212846FEF781FB7E
:1027100080212846FEF77DFBBDE8FC9F001C02409F
:102720000004024000000240001802400010024075
:102730000020024000080240000C02400014024049
:1027400030B58FB00121880600F0C2FA0121C8051A
:1027500000F086FAFFF776FE00F012FD00200090F0
:102760000190029003900C900D900E90052207218D
:10277000FA2000F039FB002000F026FB012000F0D9
:102780002DFB3D2000F004FB0028FAD01648174C22
:10279000007800EB400304EB830081784A1E04922A
:1027A000C278551E059514F8233019444B1E069324
:1027B00043781A44531E079303895C1E0C44089403
:1027C0004489651E1544099505792B441944491E11
:1027D0000A91407920441044401E0B90684600F056
:1027E0000BF90FB030BD0000100000205C42000863
:1027F0002DE9F04190B0324D324C287800EB40008A
:1028000014F8201004EB800082788B180093531882
:1028100001894A1E1A4401924278C378D61802965A
:1028200040891344421E1A44039202260496FF2252
:1028300005920022069207920892099272020A9269
:1028400005220B92032202EB41020D9249000E91E8
:102850000F904FF050470C97DFF86C806946404668
:1028600000F02CF90496297801EB410004EB80017B
:1028700008894989484307EB40000C904FF4C06039
:102880000A9007200B90104C69468034204600F0D7
:1028900015F9012000F05EF90121404600F002F92F
:1028A0000121204600F0FEF8012000F053F907480E
:1028B00000F014F8012000F08FF810B0BDE8F081AE
:1028C000100000205C4200088468014024000020C1
:1028D000014A508091807047100000200149086132
:1028E00070470000100000200B494FF050420028B4
:1028F0000ED0087800EB4003084800EB8300038902
:102900004089434302EB430088600120C860704760
:102910008A600020C8607047100000205C420008F8
:1029200001494880704700001000002010B5094997
:10293000C968002908D00146074800F0B1F8BDE891
:102940001040012000F006B901460348803800F02D
:10295000A7F8F4E710000020046901402DE9FC41CC
:102960000121802000F07CF94FF480640094012064
:102970008DF8040000218DF806108DF807008DF801
:1029800005100C4F69463846FEF7ECF966000096D4
:1029900069463846FEF7E6F9A500009569463846CF
:1029A000FEF7E0F903481830048006800580BDE892
:1029B000FC810000001C02400649002804D0086881
:1029C00040F0010008607047086820F001000860CE
:1029D00070470000186801400649002804D00868C4
:1029E00040F4803008607047086820F48030086048
:1029F000704700001868014030B5264A1368264920
:102A00000B401360038A1B04146845692C431C4364
:102A10001460121D13680B401360038B1B041468B1
:102A2000C5692C431C431460121D13680B401360CE
:102A3000038C1B041468456A2C431C431460121D4C
:102A400013680B401360018D09041368C46A2343A3
:102A50000B431360111D0A68104B1A400A60D0E93D
:102A600000231A43D0E9023423431A430B681A4364
:102A70000A60416B0A02018E0B04064924310C687E
:102A800004F07F440C600C68806B134304431C43C8
:102A90000C6030BD0868014000F800F08F88FE0F20
:102AA00041617047002904D0016841F001010160D3
:102AB0007047016821F001010160704770B58A8894
:102AC0001204436803F4704343600B68134343608C
:102AD0008A891204836803F4704383608B6813430C
:102AE0008360026922F0070202610A690261CA6911
:102AF00013020A8C120491F82440240685690025EB
:102B000085618E6922431E4316438661426922F025
:102B1000FF0242614A694261C26940F207739A4307
:102B2000C261D1E90A231A43C261826A85620A6BD3
:102B300082620A8F1204C36A03F0E023C3624B6B04
:102B40001343C362026B6FF30A020263C96B016332
:102B500070BD000001490860704700002468014012
:102B6000FEE7704730B50F23C27801250178002AAF
:102B70001FD0154A126802F4E062C2F5E062C2F3A7
:102B80000722C2F10404D3404278A24084781C405A
:102B90001443220101F1E02181F80024007800F0C3
:102BA0001F018D404009800000F1E020C0F8005175
:102BB00030BD01F01F0085404809800000F1E02091
:102BC000C0F8805130BD00000CED00E00249084320
:102BD00002490860704700000000FA050CED00E0B3
:102BE00070B54FF6FF70FFF7A5F800F05BFD00240D
:102BF000094D04EB440005EBC00001698847641CE3
:102C0000E4B2122CF5D30549002008600871BDE834
:102C10007040FFF785BE0000540100203000002006
:102C20007047000010B5002815DB0B4C227802EB32
:102C300042030A4A02EB8302138983420BDB002919
:102C400009DB52898A4206DB03FB0100A16801EB24
:102C500040006188018010BD100000205C42000827
:102C6000054A002903D011680143116070471168BB
:102C7000814311607047000030380240054A002946
:102C800003D01168014311607047116881431160DE
:102C90007047000010380240054A002903D011682F
:102CA0000143116070471168814311607047000053
:102CB00038380240054A002903D0116801431160E9
:102CC000704711688143116070470000403802402E
:102CD000054A002903D0116801431160704711684B
:102CE00081431160704700004438024070B5244BA6
:102CF000196801F00C01234C00291ED0224E042932
:102D00001DD008291DD00460196801F0F0010909DF
:102D10001E4A545C0168E14041601C6804F4E054C0
:102D2000A40A145D21FA04F484601B6803F4604370
:102D30005B0BD25CD140C16070BD0460E4E706600B
:102D4000E2E70F4A121F1168C1F38055116801F0C4
:102D50003F0135B1B6FBF1F11468C4F38814614347
:102D600005E0B4FBF1F11468C4F388146143126800
:102D7000C2F30142521C5200B1FBF2F10160C3E701
:102D8000083802400024F40040787D010000002053
:102D900002460020510901290BD002290DD0094912
:102DA000096802F01F02012393400B4200D001206A
:102DB0007047044974390968F3E70249091F096833
:102DC000EFE7000074380240034A116821F44031F3
:102DD00001431160704700008C38024001490867C8
:102DE0007047000000004742800140EA016002494C
:102DF00040EA027008607047883802402DE9FC5FA5
:102E00000121FC20FFF72CFF02208DF804008DF833
:102E1000050000208DF806008DF8070001200090C5
:102E20006946D148FDF79EFF0C220021CE48FDF7F0
:102E3000D7FF022000906946CB48FDF793FF0C2294
:102E40000121C948FDF7CCFF042000906946C6481F
:102E5000FDF788FF0C220221C348FDF7C1FF0820BF
:102E600000906946C048FDF77DFF0C220321BE4853
:102E7000FDF7B6FF102700976946BB48FDF772FFC4
:102E80000C220421B848FDF7ABFF4FF02008CDF825
:102E900000806946B448FDF765FF0C220521B24861
:102EA000FDF79EFF4FF48059CDF800906946AE487B
:102EB000FDF758FF0C221146AB48FDF791FF4FF488
:102EC000005ACDF800A06946A748FDF74BFF0C2239
:102ED0000D21A548FDF784FFBD0200956946A24873
:102EE000FDF740FF0C220E219F48FDF779FF6C0093
:102EF000009469469C48FDF735FF0C220F219A4843
:102F0000FDF76EFF0120009069469848FDF72AFF03
:102F10000C2200219548FDF763FF022000906946CE
:102F20009248FDF71FFF0C2201219048FDF758FF42
:102F3000009569468E48FDF715FF0C220E218C483E
:102F4000FDF74EFF009469468948FDF70BFF0C2200
:102F50000F218748FDF744FF01200090694684480F
:102F6000FDF700FF0C2200218148FDF739FF022008
:102F7000009069467E48FDF7F5FE0C2201217C4851
:102F8000FDF72EFF4FF0800BCDF800B06946794871
:102F9000FDF7E8FE0C2207217648FDF721FFE61138
:102FA000009669467348FDF7DDFE0C220821714842
:102FB000FDF716FFA011009069466E48FDF7D2FE9E
:102FC0000C2209216B48FDF70BFF60110090694648
:102FD0006848FDF7C7FE0C220A216648FDF700FF8E
:102FE0002011009069466348FDF7BCFE0C220B21BE
:102FF0006048FDF7F5FECDF8009069465D48FDF7A5
:10300000B1FE0C2211465B48FDF7EAFECDF800A0A8
:1030100069465848FDF7A6FE0C220D215548FDF7DC
:10302000DFFE009569465348FDF79CFE0C220E21F9
:103030005048FDF7D5FE009469464E48FDF792FED4
:103040000C220F214B48FDF7CBFE009669464848FD
:10305000FDF788FE0C2208214548FDF7C1FEA011AE
:10306000009069464248FDF77DFE0C220921404848
:10307000FDF7B6FE6011009069463D48FDF772FE0F
:103080000C220A213A48FDF7ABFE402000903A4D51
:1030900069462846FDF766FE0C2206212846FDF704
:1030A0009FFE009769463148FDF75CFE0C22042123
:1030B0002E48FDF795FECDF8008069462B48FDF7B8
:1030C00051FE0C2205212948FDF78AFE01200090BF
:1030D0002A4F69463846FDF745FE0C220021384646
:1030E000FDF77EFE2011009069461F48FDF73AFE6D
:1030F0000C220B211C48FDF773FE009469461B4807
:10310000FDF730FE0C220F211848FDF769FE0096EE
:1031100069461648FDF726FE0C2208211348FDF7E4
:103120005FFECDF800B069462846FDF71BFE0C2275
:1031300007212846FDF754FE0220009069460D48FD
:10314000FDF710FE0C2201210A48FDF749FE01207F
:10315000009069460748FDF705FE0C22002105484E
:10316000FDF73EFEBDE8FC9F00140240001802403F
:10317000000C024000100240001C02400008024007
:1031800000B593B0FFF73AFE01210846FFF784FD32
:1031900002200190072202920421039104920590DB
:1031A0000690079001200890002009900A911021B4
:1031B0000B9140210C914FF4C0710D910E904FF482
:1031C00000610F9110908800119001A8129008A83A
:1031D000FDF73CFD00F002F813B000BD2DE9FF4102
:1031E00001250095082601960295002403942021CC
:1031F0000120FDF7FFFC0028F9D16846FDF716FD18
:103200000A2000F041F802200090019602950394F4
:1032100020210120FDF7EEFC0028F9D16846FDF7DA
:1032200005FD0320009001960427029703942021B6
:103230000120FDF7DFFC0028F9D16846FDF7F6FC18
:1032400020210120FDF7D6FC0028F9D16846FDF7C2
:10325000EDFC40F231200097019602950390202169
:103260000120FDF7C7FC0028F9D16846FDF7DEFC18
:1032700040F26A50FDF76EFD20210120FDF7BAFCF7
:103280000028F9D1BDE8FF8101B581B00549019859
:103290004843009002E00098401E009000980028EB
:1032A000F9D10CBDA0860100002904D0018841F0AD
:1032B000400101807047018821F040010180704782
:1032C0002DE9F04104460F4615460F48402606807A
:1032D000032000F087F8C7F3074000F083F8C7F336
:1032E000072000F07FF8F8B200F07CF804E0FF203F
:1032F00000F078F804F8010B6D1EADB2F7D2024869
:10330000801E0680BDE8F0811A1402402DE9F043CA
:1033100087B001212020FFF7A3FC01210805FFF75A
:10332000D7FCDFF8B890052207214846FDF758FD85
:10333000052208214846FDF753FD0522092148468C
:10334000FDF74EFD8020009002258DF805508DF888
:10335000045000248DF806408DF807406946484621
:10336000FDF700FDE801009069464846FDF7FAFCCC
:103370004FF40078CDF8008069464846FDF7F2FC2E
:103380004027009701268DF8046069464846FDF7FE
:10339000E9FC124818300780ADF808404FF48270FD
:1033A000ADF80A00ADF80C40ADF80E50ADF8106065
:1033B000ADF81280ADF81440ADF816400720ADF816
:1033C0001800074C02A9204600F04FF801212046C2
:1033D000FFF76AFF07B0BDE8F08300000014024069
:1033E000005001402DE9F0410746184C4FF480553C
:1033F0002560174E09E02068411E216005D200209B
:1034000000F050F8C0B2BDE8F0810221304600F073
:1034100021F80028EFD03946304600F024F8256026
:1034200008E021684A1E226004D2012000F03AF828
:10343000C0B2E8E70121304600F00CF80028F0D0D7
:10344000304600F00EF8C0B2DDE700003800002082
:10345000005001400246002012890A4200D001209B
:103460007047808970478181704730B5028802F4C7
:1034700041530A884C88CD8822438C882C432243B0
:103480000C8922434C8922438C892243CC892243D4
:103490001A430280828B22F400628283098A0182AD
:1034A00030BD000010B5014602A000F003FB002073
:1034B00010BD00003C3C2D464C4153482D45525216
:1034C0004F522D3E3E2053504920B5C8B4FDB3ACF9
:1034D000CAB1216572726F72436F6465203D202509
:1034E000640A00007047000010B58A07120F0F230E
:1034F000934021F003040649214401F608010C68B9
:103500009C430C600B68904003430B6010BD0000AF
:10351000003001401CB50021019100912E4A106835
:1035200040F4803010604FF4A043106800F4003085
:1035300000900198401C0190009810B901989842A1
:10354000F3D11068800302D50120009000E00091C3
:10355000009801283FD120484030016841F0805157
:1035600001601E49086840F4404008601A4808306D
:1035700003680360036843F400430360036843F493
:10358000A0530360041F164B2360136843F080733D
:10359000136013689B01FCD50A6842F480320A600C
:1035A0004A68D203FCD50A6842F400320A604A68CD
:1035B0009203FCD50B4A40F205711160016821F0BD
:1035C00003010160016841F0020101600168C1F37B
:1035D00081010229FAD11CBD003802400070004070
:1035E000195A4007003C02407047000010B51248CD
:1035F000016841F4700101601048016841F0010167
:1036000001600E4A00210832116002680C4B1A401A
:103610000260031D0B4A1A60026822F480220260D5
:1036200006480C300160FFF775FF03494FF000605A
:103630008039086010BD000088ED00E000380240CD
:10364000FFFFF6FE103000242DE9F04105460E463E
:103650000024134F04EB440207EBC2008188A94207
:1036600010D3C188B1420DD34188B1420AD837F88E
:103670003210A94206D8017B59B9012101730169B1
:10368000884706E0017B012903D10021017301690C
:103690008847641CE4B2122CDCD3BDE8F081000042
:1036A000540100202DE9FC4FA748002220F8B82C37
:1036B00020F8B62CA649A54B0C78019433F82410B9
:1036C00020F8B41C019C03EB84035B8820F8B23C17
:1036D00040F8B02C00F8AC2C9E4C40F8A84C9E4D05
:1036E00040F8A45C20F8A02C20F89E3C20F89C1CFC
:1036F0004FF6FF7606EA430E20F89AEC46F20C36B7
:1037000040F8986C00F8942C40F8904C40F88C5C91
:1037100020F8882C20F886EC20F8841C03EB430763
:1037200020F8827C1F2640F8806C00F87C2C40F842
:10373000784C40F8745C20F8702C20F86E7C20F8EF
:103740006C1C4FF6FF7606EA830920F86A9C102667
:1037500040F8686C00F8642C40F8604C40F85C5C01
:1037600020F8582C20F8569C20F8541C03EB830CAE
:1037700020F852CC4FF4784640F8506C00F84C2CAE
:1037800040F8484C40F8445C20F8402C20F83ECCEF
:1037900020F83C1C4FF6FF7606EA470A20F83AACC0
:1037A0004FF61F0640F8386C00F8342C40F8304CC7
:1037B00040F82C5C20F8282C20F826AC20F8241C9B
:1037C000C3EBC30820F8228C4FF4FC6640F8206C51
:1037D00000F81C2C40F8184C40F8145C20F8102C11
:1037E00020F80E8C20F80C1C4FF6FF7606EAC30B6F
:1037F00020F80ABC761140F8086C00F8042C04602C
:1038000045600281A0F80AB08181019C04EB440567
:10381000524C04EB850464890094C4814DF6FB642A
:10382000046102754E4C84614E4CC4610184428433
:103830004FF6FF7404EA41048484C384826280F8F2
:103840002C20494D0563494E466301874387848791
:10385000A0F83EE00123036480F844208564C66438
:10386000A0F85010A0F852E0A0F85440A0F856700C
:103870000223836580F85C2005664666A0F8681020
:10388000A0F86A70A0F86C40A0F86E90032303675C
:1038900080F874208567C667A0F88010A0F8829031
:1038A000A0F88440A0F886C00423C0F8883080F8CF
:1038B0008C20C0F89050C0F89460A0F89810A0F840
:1038C0009AC0A0F89C40A0F89EA00523C0F8A030A4
:1038D00080F8A420C0F8A850C0F8AC60A0F8B010E0
:1038E000A0F8B2A0A0F8B440A0F8B6800623C0F8B3
:1038F000B83080F8BC20C0F8C050C0F8C460A0F850
:10390000C810A0F8CA80A0F8CC40A0F8CEB0072319
:10391000C0F8D03080F8D420C0F8D850C0F8DC60AF
:10392000A0F8E010A0F8E2B0A0F8E440009CA0F8F5
:10393000E6400821C0F8E81080F8EC20C0F8F0500C
:10394000C0F8F460BDE8FC8F0C0200205054000861
:103950001000002075060008B50300085C4200084E
:10396000A10500084D030008E10600089D030008BA
:1039700070B503460020124D00EB400205EBC20477
:10398000A6889E4217D935F832209A4213D2E2888F
:103990008A4210D962888A420DD200EB400005EBC2
:1039A000C0000021017321692046884720466169D3
:1039B000BDE870400847401CC0B21228DCD370BD7F
:1039C00054010020002904D0818941F400518181F3
:1039D0007047818921F4005181817047024600209F
:1039E00012880A4200D00120704700007FB50446CB
:1039F0000D46208A20F44051E88808432082A0899F
:103A000041F20C618843A9882A8911436A890243DB
:103A10001143A181A08A20F44071A8890843A082A3
:103A20006846FFF763F91E48844202D01D4884426D
:103A300001D1039800E00298A189090408D500EBA0
:103A4000C00101EB001029684900B0FBF1F007E06C
:103A500000EBC00101EB001029688900B0FBF1F018
:103A60006422B0FBF2F109010B096FF018056B43FA
:103A700000EB8300A3891D044FF0320307D503EB4D
:103A8000C000B0FBF2F000F00700084306E003EBD3
:103A90000010B0FBF2F000F00F00084320817FBD62
:103AA0000010014000140140C1F3080181807047FB
:103AB000FEE700000FB4054B10B503A9044A0298B5
:103AC00000F018F810BC5DF814FB0000593F000826
:103AD0004801002002E008C8121F08C1002AFAD1DC
:103AE00070477047002001E001C1121F002AFBD17E
:103AF000704700002DE9FF4F8DB00F4605460026A8
:103B000006E025280BD0DDE90F1290476D1C761CCE
:103B100028780028F5D111B03046BDE8F08F002498
:103B2000A246A1460122EC4900E0044315F8013FFA
:103B3000203B02FA03F00842F7D128782A2810D057
:103B40006FF02F022878A0F13001092914D80AEB70
:103B50008A0102EB410144F0020400EB010A6D1CF2
:103B6000F0E701CF5FEA000A03D544F40054CAF13C
:103B7000000A44F002046D1C28782E2817D115F88D
:103B8000010F44F004042A280ED06FF02F02287889
:103B9000A0F1300109290AD809EB890102EB4101A2
:103BA00000EB01096D1CF2E757F8049B6D1C2878A7
:103BB0006C280FD006DC4C2817D068280DD06A2856
:103BC00014D104E0742810D07A280FD10DE044F409
:103BD00000140AE044F4801401E044F440146978CD
:103BE000814202D104F580146D1C6D1C2A786E2A66
:103BF0001FD00CDC632A31D004DC002A8BD0582A79
:103C000011D1A3E0642A68D0692A0CD165E0732A37
:103C10002ED004DC6F2A73D0702A04D19BE0752A61
:103C20006FD0782A6ED01046DDE90F129047761CCF
:103C300050E1C4F30250022806D0032809D004281A
:103C400001CF09D0066045E101CFF117C0E900615D
:103C500040E101CF06803DE106703BE117F8040B1F
:103C60008DF8000000208DF80100EB46012003E0F4
:103C700057F804BB4FF0FF3061074FF0000102D44A
:103C80000DE008F10101884649450FDA8045F8DB6F
:103C90001BF808100029F4D108E008F1010188465A
:103CA0008142FADB1BF808100029F6D1DDE90F2369
:103CB000AAEB08008146214600F036F9304400EBBB
:103CC000080604E0DDE90F121BF8010B9047B8F17C
:103CD0000108F7D221464846F7E00A21C4F302530F
:103CE0004FF0000B0891022B04D001CFC117032B1A
:103CF00009D00AE0FF1D27F00707F7E8020108E0F6
:103D000032E01FE020E000B2C117042B01D140B225
:103D1000C117031E71F1000307DA4FF0000CD0EB5E
:103D20000C006CEB01012D2302E0230504D52B23AD
:103D30008DF82430012303E0E30701D02023F7E7C7
:103D4000984658E00A2110E010210EE010204FF0B4
:103D5000000B08900CE010214FF0000B44F004041D
:103D60004FF00809089103E008214FF0000B08917B
:103D7000C4F30253022B04D001CF0021032B06D041
:103D800006E0FF1D27F00707F7E8020103E080B215
:103D9000042B00D1C0B24FF0000823072BD5702AA6
:103DA00007D0DDF820C08CF0100C5CEA0B0C05D0BD
:103DB0000EE040238DF82430012308E050EA01038F
:103DC00006D030238DF824308DF825200223984624
:103DD000DDF820C08CF0080C5CEA0B0C0BD150EA2B
:103DE000010301D1630706D530238DF824304FF04D
:103DF0000108A9F10109582A04D038A20B9208AA97
:103E00000A920BE03AA2F9E75B46089AFCF70EFA31
:103E10000B9B9B5C0A9A521E0A92137050EA010295
:103E2000F2D10A98ADEB000000F1200B600702D53B
:103E300024F4803401E04FF00109D94502DDA9EBFB
:103E40000B0000E0002000EB0B0141440890AAEBBE
:103E5000010AE00306D4DDE90F232146504600F0B5
:103E600063F806444FF0000908E009A911F80900B9
:103E7000DDE90F12904709F10109761CC145F4DB19
:103E8000E0030CD5DDE90F232146504600F04CF845
:103E9000064404E0DDE90F1230209047761C0899B3
:103EA000481E08900029F5DC08E00A980A99007875
:103EB000491C0A91DDE90F129047761CBBF1000105
:103EC000ABF1010BF1DC21465046DDE90F2300F098
:103ED00019F806446D1C1BE6092801003031323305
:103EE0003435363738396162636465660000000036
:103EF0003031323334353637383941424344454620
:103F0000000000002DE9F041044600251E4617463A
:103F1000880404D405E039462020B0476D1C641E97
:103F2000F9D52846BDE8F0812DE9F0410446002589
:103F30001E469046C80301D5302700E0202788049C
:103F400004D505E041463846B0476D1C641EF9D5DE
:103F50002846BDE8F081000070B50446064DE1B288
:103F60002846FFF7A1FD80212846FFF737FD0028EE
:103F7000F9D0204670BD00000010014010B50028A7
:103F800021D0114B0022001F196803E0814203D8A1
:103F90000A4649680029F9D152B11368841A9C4233
:103FA00004D1006818441060104602E0506000E040
:103FB000186039B102680B1A934203D10B681A4496
:103FC00002604968416010BD4C01002010B50C4CE6
:103FD00020212046FCF71BFF00F014F8102120469A
:103FE000FCF717FF00F00EF810212046FCF70FFF3A
:103FF00000F008F82046BDE810402021FCF709BF7A
:10400000001C02400020401CC0B23228FBD3704785
:1040100010B50A4C20212046FCF7FBFEFFF7F2FF0B
:1040200010212046FCF7F5FEFFF7ECFF102120469B
:10403000FCF7EDFEBDE81040FFF7E4BF001C0240B6
:1040400070B5002400250E4E6006040E1021304687
:10405000FCF7DFFEFFF7D6FF20213046FCF7D0FE4D
:1040600008B1641CE4B210213046FCF7D0FEFFF723
:10407000C9FF6D1CEDB2082DE6D3204670BD0000CF
:10408000001C024070B505460024134E280604D5D6
:1040900020213046FCF7BDFE03E020213046FCF72E
:1040A000B6FEFFF7AFFF10213046FCF7B2FEFFF778
:1040B000A9FF10213046FCF7AAFE072C03D12021CE
:1040C0003046FCF7A6FE6806050EFFF79BFF641C52
:1040D000E4B2082CDAD370BD001C024010B50C4CC1
:1040E00020212046FCF795FE10212046FCF791FE8A
:1040F000FFF788FF20212046FCF789FEFFF782FFAB
:1041000010212046FCF783FEBDE81040FFF77ABF80
:10411000001C024010B5084C20212046FCF777FE19
:1041200010212046FCF775FEFFF76CFF2046BDE826
:1041300010402021FCF76DBE001C024070B50E4DF2
:1041400020212846FCF765FEFFF75CFF102128467A
:10415000FCF75FFEFFF756FF20212846FCF750FED4
:1041600008B1012400E0002410212846FCF74FFE8E
:10417000FFF748FF204670BD001C0240FEF7EEFB33
:10418000FCF7A6F911A0FFF795FCFCF799FFFEF7E5
:10419000D7FAFEF72DFB0120FEF70EFC0020FEF7FC
:1041A000A3FB4FF400442046FDF7C4FD0120FEF7B9
:1041B0009BFBFF20FEF7BAFB2046FDF7BBFDFEF799
:1041C0000FFD40F6FF70FCF7CFF9FEE70D0AD2B005
:1041D000BBF053544D334634323920B4A5C3FEBB33
:1041E000ADB0E5B2E2CAD4C0FDB3CC0D0A00000008
:1041F000F0B50B30154D20F007010024144A0FE0F4
:1042000003688B420BD38B4205D95E1A431847686B
:10421000C3E9006700E04368136002C004E0021DC8
:1042200010680028ECD12046002802D1286808B187
:104230000020F0BD064A07481060074A121A22F013
:104240000702C0E9002401202860D7E750010020C0
:104250004C0100200C030020080700202E1701014C
:10426000161621152003E0012E170101161621153F
:104270002003E0010802290A04040F0FE0011001E5
:10428000000000000000000000000000000000002E
:10429000000000000000000000000000000000001E
:1042A000000000000000000000000000000000000E
:1042B0000000800180018001800180018001800177
:1042C00080018001800180018001800100000000E8
:1042D00080018001000000000000000000000000DC
:1042E00000000000CC00CC00CC00CC00CC00CC0006
:1042F00000000000000000000000000000000000BE
:1043000000000000000000000000000000000000AD
:10431000000000000000000000000000600C600CC5
:10432000600C30063006FE1FFE1F300638071803EB
:10433000FE1FFE1F180318038C018C018C01000066
:1043400000008000E003F80F9C0E8C1C8C188C0081
:104350009800F801E007800E801C8C188C189C18BF
:10436000B80CF00FE00380008000000000000000A7
:104370000000000000000E181B0C110C11061106A5
:10438000110311039B018E01C038C06C604460446E
:10439000304430441844186C0C3800000000000011
:1043A0000000E001F0033807180618063003F0019A
:1043B000F000F8009C310E33061E061C061C063F5A
:1043C000FC73F0210000000000000000000000006D
:1043D000000000000C000C000C000C000C000C0095
:1043E00000000000000000000000000000000000CD
:1043F00000000000000000000000000000000000BD
:104400000000000200038001C000C00060006000E6
:10441000300030003000300030003000300030001C
:1044200060006000C000C0008001000300020000C6
:10443000000020006000C000800180010003000334
:10444000000600060006000600060006000600063C
:104450000003000380018001C00060002000000014
:10446000000000000000000000000000C000C000CC
:10447000D806F807E001300338070000000000000C
:10448000000000000000000000000000000000002C
:10449000000000000000000000000000800180011A
:1044A000800180018001FC3FFC3F80018001800190
:1044B00080018001000000000000000000000000FA
:1044C00000000000000000000000000000000000EC
:1044D00000000000000000000000000000000000DC
:1044E0000000800180010001000180000000000048
:1044F00000000000000000000000000000000000BC
:104500000000000000000000E007E00700000000DD
:10451000000000000000000000000000000000009B
:10452000000000000000000000000000000000008B
:10453000000000000000000000000000000000007B
:104540000000C000C00000000000000000000000EB
:104550000000000C000C000600060006000300032B
:1045600000038003800180018001C000C000C00002
:10457000600060000000000000000000000000007B
:104580000000E003F007380E180C0C180C180C187B
:104590000C180C180C180C180C180C18180C380ED9
:1045A000F007E00300000000000000000000000031
:1045B000000000018001C001F00198018801800124
:1045C00080018001800180018001800180018001E3
:1045D00080018001000000000000000000000000D9
:1045E0000000E003F80F180C0C180C180018001845
:1045F000000C000600038001C000600030001800BD
:10460000FC1FFC1F00000000000000000000000074
:104610000000E001F807180E0C0C0C0C000C000652
:10462000C003C007000C001800180C180C18180C58
:10463000F807E00300000000000000000000000098
:104640000000000C000E000F000F800DC00C600C6D
:10465000600C300C180C0C0CFC3FFC3F000C000CE8
:10466000000C000C00000000000000000000000032
:104670000000F80FF80F180018000C00EC03FC07FE
:104680001C0E001C0018001800180C181C0C180E2A
:10469000F807E00300000000000000000000000038
:1046A0000000C007F00F381C181818000C00CC03CD
:1046B000EC0F3C0E1C1C0C180C180C18181C380E97
:1046C000F007E00300000000000000000000000010
:1046D0000000FC1FFC1F000C000600060003800306
:1046E0008001C001C000E000600060007000300088
:1046F000300030000000000000000000000000005A
:104700000000E003F007380E180C180C180C3806DF
:10471000F007F007180C0C180C180C180C18380CB3
:10472000F80FE0030000000000000000000000009F
:104730000000E003F007380E1C0C0C180C180C18C5
:104740001C1C381EF81BE0190018000C000C1C0E75
:10475000F807F00100000000000000000000000069
:104760000000000000000000000000008001800147
:104770000000000000000000000000000000000039
:104780008001800100000000000000000000000027
:104790000000000000000000000000008001800117
:1047A0000000000000000000000000000000000009
:1047B0008001800100010001800000000000000075
:1047C00000000000000000000000000000000000E9
:1047D0000010001C800FE003F8001800F800E00350
:1047E000800F001C0010000000000000000000000E
:1047F00000000000000000000000000000000000B9
:10480000F81F000000000000F81F0000000000007A
:104810000000000000000000000000000000000098
:104820000000000000000000000000000000000088
:1048300008003800F001C007001F0018001FC00763
:10484000F001380008000000000000000000000037
:104850000000E003F80F180C0C180C180018000CDE
:10486000000600038001C000C000C000000000007E
:10487000C000C000000000000000000000000000B8
:1048800000000000E00718180420C229224A114441
:1048900009440944094409221113E20C024004208E
:1048A0001818E007000000000000000000000000F1
:1048B000000080038003C006C006C006600C600CC8
:1048C000301830183018F83FF83F1C700C600C603E
:1048D00006C006C00000000000000000000000004C
:1048E0000000FC03FC0F0C0C0C180C180C180C0C22
:1048F000FC07FC0F0C180C300C300C300C300C1872
:10490000FC1FFC0700000000000000000000000089
:104910000000C007F01F38381C300C70066006001D
:104920000600060006000600060006600C701C303B
:10493000F01FE00700000000000000000000000081
:104940000000FE03FE0F060E06180618063006309D
:104950000630063006300630063006180618060EF9
:10496000FE0FFE0300000000000000000000000039
:104970000000FC3FFC3F0C000C000C000C000C0085
:10498000FC1FFC1F0C000C000C000C000C000C00A9
:10499000FC3FFC3F000000000000000000000000A1
:1049A0000000F83FF83F1800180018001800180021
:1049B000F81FF81F18001800180018001800180039
:1049C00018001800000000000000000000000000B7
:1049D0000000E00FF83F3C780E6006E007C00300DF
:1049E000030003FE03FE03C007C006C00EC03CF078
:1049F000F83FE00F00000000000000000000000091
:104A000000000C300C300C300C300C300C300C3002
:104A1000FC3FFC3F0C300C300C300C300C300C30B8
:104A20000C300C300000000000000000000000000E
:104A300000008001800180018001800180018001EF
:104A4000800180018001800180018001800180015E
:104A50008001800100000000000000000000000054
:104A6000000000060006000600060006000600061C
:104A7000000600060006000600061806180638079D
:104A8000F003E00100000000000000000000000052
:104A9000000006300618060C060606038601C6004E
:104AA00066007600DE008E0106030606060C061878
:104AB000063006600000000000000000000000005A
:104AC000000018001800180018001800180018003E
:104AD0001800180018001800180018001800180016
:104AE000F81FF81F00000000000000000000000098
:104AF00000000EE01EF01EF01EF036D836D836D874
:104B000036D866CC66CC66CCC6C6C6C6C6C6C6C6D1
:104B100086C386C300000000000000000000000003
:104B200000000C301C303C303C306C306C30CC30F1
:104B3000CC308C310C330C330C360C360C3C0C3C2A
:104B40000C380C30000000000000000000000000E5
:104B50000000E007F81F1C380E70066003C003C099
:104B600003C003C003C003C003C006600E701C383E
:104B7000F81FE00700000000000000000000000037
:104B80000000FC0FFC1F0C380C300C300C300C30CB
:104B90000C18FC1FFC070C000C000C000C000C0097
:104BA0000C000C00000000000000000000000000ED
:104BB0000000E007F81F1C380E70066003E003C019
:104BC00003C003C003C003C007E006630E3F1C3CE4
:104BD000F83FE0F700C00000000000000000000007
:104BE0000000FE0FFE1F063806300630063006387D
:104BF000FE1FFE0706030606060C061806180630FA
:104C00000630066000000000000000000000000008
:104C10000000E003F80F1C0C0C180C180C001C0012
:104C2000F803E00F001E0038063006300E301C1C62
:104C3000F80FE00700000000000000000000000086
:104C40000000FE7FFE7F80018001800180018001E5
:104C5000800180018001800180018001800180014C
:104C60008001800100000000000000000000000042
:104C700000000C300C300C300C300C300C300C3090
:104C80000C300C300C300C300C300C300C30181850
:104C9000F81FE00700000000000000000000000016
:104CA000000003600630063006300C180C180C1893
:104CB000180C180C380E30063006700760036003BD
:104CC000C001C00100000000000000000000000062
:104CD00000000360C361C361C3616633663366333A
:104CE0006633663366336C1B6C1B6C1B2C1A3C1EC4
:104CF000380E380E00000000000000000000000028
:104D000000000FE00C7018303018700C600EC007F7
:104D100080038003C003E006700C301C18180C30B0
:104D20000E6007E00000000000000000000000002E
:104D3000000003C006600C301C383818300C6006C8
:104D4000E007C003800180018001800180018001B3
:104D50008001800100000000000000000000000051
:104D60000000FC7FFC7F006000300018000C000693
:104D700000038001C0006000300018000C00060035
:104D8000FE7FFE7F00000000000000000000000029
:104D90000000E003E003600060006000600060006D
:104DA0006000600060006000600060006000600003
:104DB00060006000600060006000E003E00300004D
:104DC000000030003000600060006000C000C000E3
:104DD000C000C001800180018001000300030003C6
:104DE00000060006000000000000000000000000B7
:104DF0000000E003E00300030003000300030003DE
:104E0000000300030003000300030003000300038A
:104E100000030003000300030003E003E0030000BD
:104E200000000000C001C0016003600360033006A1
:104E30003006180C180C00000000000000000000F4
:104E40000000000000000000000000000000000062
:104E50000000000000000000000000000000000052
:104E60000000000000000000000000000000000042
:104E70000000FFFFFFFF0000000000000000000036
:104E800000000C000C000C000C000C000C000000DA
:104E90000000000000000000000000000000000012
:104EA0000000000000000000000000000000000002
:104EB000000000000000000000000000F003F80700
:104EC0001C0C0C0C000FF00FF80C0C0C0C0C1C0F35
:104ED000F80FF018000000000000000000000000C3
:104EE000000018001800180018001800D803F80F68
:104EF000380C181818181818181818181818380C0A
:104F0000F80FD803000000000000000000000000BF
:104F1000000000000000000000000000C003F007D7
:104F2000300E180C1800180018001800180C300E5D
:104F3000F007C003000000000000000000000000B7
:104F4000000000180018001800180018C01BF01FFF
:104F5000301C181818181818181818181818301C99
:104F6000F01FC01B00000000000000000000000057
:104F7000000000000000000000000000C003F00F6F
:104F8000300C1818F81FF81F180018003818301CBB
:104F9000F00FC0070000000000000000000000004B
:104FA0000000800FC00FC000C000C000F007F00775
:104FB000C000C000C000C000C000C000C000C000F1
:104FC000C000C00000000000000000000000000061
:104FD000000000000000000000000000E00DF80FDD
:104FE000180E0C0C0C0C0C0C0C0C0C0C0C0C180EE5
:104FF000F80FE00D000C0C0C1C06F807F001000087
:10500000000018001800180018001800D807F80F42
:10501000381C1818181818181818181818181818EC
:105020001818181800000000000000000000000020
:105030000000C000C000000000000000C000C00070
:10504000C000C000C000C000C000C000C000C00060
:10505000C000C000000000000000000000000000D0
:105060000000C000C000000000000000C000C00040
:10507000C000C000C000C000C000C000C000C00030
:10508000C000C000C000C000C000F80078000000F0
:1050900000000C000C000C000C000C000C0C0C06AA
:1050A0000C038C01CC006C00FC009C018C030C03F5
:1050B0000C060C0C000000000000000000000000C6
:1050C0000000C000C000C000C000C000C000C000A0
:1050D000C000C000C000C000C000C000C000C000D0
:1050E000C000C00000000000000000000000000040
:1050F0000000000000000000000000007C3CFF7E7B
:10510000C7E383C183C183C183C183C183C183C119
:1051100083C183C100000000000000000000000007
:105120000000000000000000000000009807F80FD9
:10513000381C1818181818181818181818181818CB
:1051400018181818000000000000000000000000FF
:10515000000000000000000000000000C003F00F8D
:10516000300C181818181818181818181818300CA7
:10517000F00FC0030000000000000000000000006D
:10518000000000000000000000000000D803F80F3D
:10519000380C181818181818181818181818380C67
:1051A000F80FD803180018001800180018000000A5
:1051B000000000000000000000000000C01BF01F05
:1051C000301C181818181818181818181818301C27
:1051D000F01FC01B0018001800180018001800006D
:1051E000000000000000000000000000B007F00315
:1051F00070003000300030003000300030003000EF
:10520000300030000000000000000000000000003E
:10521000000000000000000000000000E003F003B8
:10522000380E180C3800F003C007000C180C380EAC
:10523000F007E00300000000000000000000000094
:10524000000000008000C000C000C000F007F007B0
:10525000C000C000C000C000C000C000C000C0004E
:10526000C0078007000000000000000000000000F0
:1052700000000000000000000000000018181818CE
:105280001818181818181818181818181818381C7A
:10529000F01FE01900000000000000000000000006
:1052A0000000000000000000000000000C18180CB6
:1052B000180C180C300630063006600360036003DB
:1052C000C001C0010000000000000000000000005C
:1052D000000000000000000000000000C141C141CA
:1052E000C3616363636363633636363636361C1CCC
:1052F0001C1C1C1C0000000000000000000000003E
:105300000000000000000000000000001C38381CF5
:10531000300C600660036003600360036006300CBD
:10532000381C1C38000000000000000000000000D5
:1053300000000000000000000000000018303018DD
:1053400030187018600C600CE00CC006C0068003BA
:105350008003800380018001C001F0007000000024
:10536000000000000000000000000000FC1FFC1F07
:10537000000C000600038001C0006000300018002F
:10538000FC1FFC1F000000000000000000000000E7
:10539000000000038001C000C000C000C000C000C9
:1053A000C00060006000300060004000C000C0002D
:1053B000C000C000C000C000800100030000000069
:1053C0000000800180018001800180018001800156
:1053D00080018001800180018001800180018001C5
:1053E0008001800180018001800180018001000036
:1053F00000006000C000C0018001800180018001C8
:105400008001000300030006000300018001800109
:105410008001800180018001C00060000000000068
:10542000000000000000000000000000000000007C
:10543000F010F81F080F000000000000000000003E
:10544000000000000000000000000000000000005C
:105450005A0032005A00320028001900814E000024
:10546000815800008140000000000000002003E09F
:1054700001053C000108280C503203050000000023
:1054800000000017191E148B2B0D33350C0800007B
:10549000009A03110001000000000032000000200B
:1054A0005894C50200000004B02300932B007B3504
:1054B000006941005B4F005B00000000000000003D
:1054C00000000000000000000000000000000000DC
:1054D00000000000000000000000000002040608B8
:1054E0000A0C0E10121416181AFF0000000000001B
:1054F0000000000000000000000000020406080A8E
:105500000C0F10121316181C1D1E1F2021222426FA
:10551000FFFFFFFF000000FFFFFFFFFFFFFFFFFF98
:10552000FFFFFFFF4801002003E001050D00010817
:10553000280F5032030500000000000000000000AA
:10554000008A2A0C45470C0800000002022D0000CA
:10555000000000036432000000286494C5020700C4
:1055600000049C2C008F3400843F007C4C00775B4F
:1055700000770000000000000000000000000000B4
:10558000000000000000000000000000000000001B
:1055900000000000000018161412100E0C0A080675
:1055A0000402FFFF000000000000000000000000F7
:1055B0000000000016181C1D1E1F2021222413129B
:1055C000100F0A0806040200FFFFFFFFFFFF0000A4
:1055D00000000000000000000000000000002401A6
:1055E00097E0011001050D00010000055A46531116
:1055F00000001111141414220A040000000000001D
:1056000053001400008400003C0000641E2887271B
:10561000083234050D2033601102240000648080BC
:1056200014020000548968856D827280767D7B7BD0
:1056300000000000000000F0503CFFFF07000000E9
:1056400002141403040021640A000000000000009A
:10565000000000000000000000000000000000004A
:1056600000003220503C3C00000000000D060C05FC
:105670000B040A03FFFFFFFFFFFF00010203040505
:10568000060708090A0B0C0DFFFFFFFFFFFFFFFFD6
:10569000FFFFFFFF0000000000000000000000000E
:1056A00000003C00051E00022A1E19140200030A15
:1056B000050000000000000001FFFF86220300003B
:1056C00033000F000000503C50000000002A010091
:1056D0002003E00147802003E0014780E001100142
:1056E00050802003E0015080814E00000000000047
:1056F000000000003C3C2D4754502D4552524F5263
:105700002D3E3E2049324320526561643A20307874
:10571000253034582C202564206279746573206606
:1057200061696C65642C20657272636F64653A20F0
:105730002564212050726F636573732072657365F1
:10574000742E0A003C3C2D4754502D4552524F5266
:105750002D3E3E204932432057726974653A20300D
:1057600078253034582C20256420627974657320A4
:105770006661696C65642C20657272636F64653A5A
:10578000202564212050726F6365737320726573E6
:1057900065742E0A00000000B857000800000020C1
:1057A00054010000F2020008A4580008540100202F
:1057B000B4090000E43A0008412D01020304044545
:1057C0000607080953FFFF82D0138042130810E236
:1057D0001822A082031009972003E0010A35041063
:1057E0000869090F50323311200A321111288CAA8E
:1057F000DC5804331E3C5231234032135038100E13
:105800008D20164E4C7C05283E280D43241008019F
:10581000396BC094842D401054B0419D498D527F06
:105820005A75626C4250142808F0503C8888275002
:10583000418112501F02780A50FFE45961A33CB025
:105840002F56A207501E05C678130A0B0C0D0E0F1B
:10585000101215161718191A1B1D1FFF01780E1F9D
:105860001E1D1C1B1A1918171514131216111008D7
:10587000307F7F7FFF5464180A804607503C321403
:105880000A64AC21100C110262320314500CE214B1
:1058900050135410880832A20764A4B6014D890140
:0458A000C100000043
:04000005080001AD41
:00000001FF
